:100000000C9458000C9480000C9480000C94800098
:100010000C9480000C9480000C9480000C94800060
:100020000C9480000C9480000C9480000C94800050
:100030000C9480000C9480000C9480000C94800040
:100040000C94CB030C9480000C9480000C948000E2
:100050000C9480000C9480000C9480000C94800020
:100060000C9415040C94800000000000250028006A
:100070002B00040404040404040402020202020229
:10008000030303030303010204081020408001025C
:1000900004081020010204081020000000080002DB
:1000A0000100000304070000000000000000340508
:1000B00011241FBECFEFD8E0DEBFCDBF11E0A0E01E
:1000C000B1E0E0ECFCE002C005900D92AA35B1076A
:1000D000D9F722E0AAE5B1E001C01D92A533B2072D
:1000E000E1F710E0C8E5D0E004C02197FE010E94CE
:1000F0005806C735D107C9F70E9454050C945E060F
:100100000C94000008950895AF92BF92CF92DF92B1
:10011000EF92FF920F931F93CF93DF936C017B01BC
:100120008B01040F151FEB015E01AE18BF08C0174D
:10013000D10759F06991D601ED91FC910190F081C0
:10014000E02DC6010995892B79F7C501DF91CF9183
:100150001F910F91FF90EF90DF90CF90BF90AF90E5
:10016000089590E0FC01E656FF4F2491FC01EA5708
:10017000FF4F3491FC01EE58FF4FE491EE23C9F09C
:10018000222339F0233001F1A8F4213019F1223073
:1001900029F1F0E0EE0FFF1FE859FF4FA591B49150
:1001A0008FB7F894EC91611126C030953E233C93B3
:1001B0008FBF08952730A9F02830C9F0243049F7BF
:1001C000809180008F7D03C0809180008F77809325
:1001D0008000DFCF84B58F7784BDDBCF84B58F7D82
:1001E000FBCF8091B0008F778093B000D2CF809109
:1001F000B0008F7DF9CF3E2BDACF3FB7F8948091D6
:10020000110290911202A0911302B091140226B52E
:10021000A89B05C02F3F19F00196A11DB11D3FBF3E
:10022000BA2FA92F982F8827BC01CD01620F711D0D
:10023000811D911D42E0660F771F881F991F4A9507
:10024000D1F708958F929F92AF92BF92CF92DF9293
:10025000EF92FF926B017C010E94FD004B015C015B
:10026000C114D104E104F104B9F00E94FD00681941
:1002700079098A099B09683E73408105910580F3DD
:1002800021E0C21AD108E108F10888EE880E83E067
:10029000981EA11CB11CE4CFFF90EF90DF90CF908F
:1002A000BF90AF909F908F900895089520919B01EB
:1002B000260F3327331F21323105ECF42091E4015E
:1002C000FC0190E080E0243069F082E00895A09184
:1002D0009B012191AC0145585E4FA40FB52FB11D74
:1002E0002C930196861798F380919B01680F609379
:1002F0009B0180E0089581E008951092E40181E07F
:100300008093E3011092BE0161E082E10E94B1009E
:1003100061E083E10E94B100E9EBF0E080818E7F33
:10032000808380818D7F808388E48093B80085E41A
:100330008093BC000895CF93DF9391E090937A016E
:100340008823B9F0C091B800D091BA008091BC0068
:100350008A7B8093BC0060E082E10E94B10060E093
:1003600083E10E94B1000E947D01D093BA00C09346
:10037000B800DF91CF9108950895E0911C0280911B
:100380001B02E81730F4F0E0E65AFE4F808190E05F
:1003900008958FEF9FEF089590911C0280911B02AA
:1003A0002FEF3FEF981748F4E92FF0E0E65AFE4FA1
:1003B000208130E09F5F90931C02C90108958091D5
:1003C0001B0290911C02891B990B0895CF92DF921A
:1003D000EF92FF920F931F93CF93DF937C01CB019A
:1003E0008A012091EA01222389F0EB016B01C40EFE
:1003F000D51ECC15DD0569F06991D701ED91FC9111
:100400000190F081E02DC7010995F3CF642F0E9480
:100410005601C801DF91CF911F910F91FF90EF908E
:10042000DF90CF900895CF93DF931F92CDB7DEB7C3
:1004300069832091EA012223F9F0209119022032E8
:1004400058F021E030E0FC013383228390E080E02B
:100450000F90DF91CF91089580911A02E82FF0E07C
:10046000E551FE4F998190838F5F80931A028093AC
:10047000190281E090E0ECCF61E0CE0101960E948C
:100480005601F7CFCF92DF92EF92FF920F931F9317
:10049000CF93DF93FC01C48121E02093EA01C09354
:1004A0000B0210921A02109219028385682B8DE1BB
:1004B00092E00E941302D0911902D13208F092C04A
:1004C0000E94FD006B017C018091E401811165C0F7
:1004D00082E08093E40181E08093E3018FEF8093D9
:1004E000E2011092E101D093E001ABEEB1E0E0EC6B
:1004F000F1E080E0D81385C01092BF018091BF0168
:10050000CC0FC82BC093BF018091BE01813009F090
:100510007CC01092BE010E94FD006B017C018091A5
:10052000BF018093BB008091E6019091E701A0910B
:10053000E801B091E901892B8A2B8B2B99F00E945D
:10054000FD000091E6011091E7012091E801309152
:10055000E9016C197D098E099F09061717072807FD
:100560003907E0F18091BC0083FDD9CF85EC809301
:10057000BC000E94FD006B017C018091E40182308F
:1005800009F445C08091E2018F3F61F18091E20161
:10059000803241F18091E20125C08091E601909185
:1005A000E701A091E801B091E901892B8A2B8B2BFF
:1005B00009F48ACF0E94FD000091E6011091E70145
:1005C0002091E8013091E9016C197D098E099F099C
:1005D000061717072807390708F076CF8091E5013D
:1005E0000E949B0110921A02109219021092EA01C5
:1005F000DF91CF911F910F91FF90EF90DF90CF90FF
:1006000008959D9191938F5F75CF85EEB0CF8091C6
:10061000E6019091E701A091E801B091E901892BF1
:100620008A2B8B2B09F4A9CF0E94FD000091E601D3
:100630001091E7012091E8013091E9016C197D09E1
:100640008E099F09061717072807390708F095CF65
:10065000C5CF90E080E008950F931F93CF938C0156
:10066000C62F0E9442026C2F6460C8010E944202A1
:100670006C2F6B7FC8010E94420283EC90E00197CF
:10068000F1F7CF911F910F9108950F931F93CF937F
:10069000DF938C01D62FC42F607F642B0E942C0324
:1006A00080E1D89FB00111246C2BC801DF91CF915C
:1006B0001F910F910C942C03CF93DF93CDB7DEB72E
:1006C00028970FB6F894DEBF0FBECDBF98E0E3E3E6
:1006D000F1E0DE01119601900D929A95E1F790916B
:1006E0003102981708F48FEF90E0880F991F21E0EE
:1006F00030E02C0F3D1F820F931FFC01608160686A
:1007000040E089E292E028960FB6F894DEBF0FBE73
:10071000CDBFDF91CF910C94450341E00E9445038A
:1007200081E090E0089585ED8093BC008091E60122
:100730009091E701A091E801B091E9010796A11D10
:10074000B11D23E0B695A795979587952A95D1F782
:100750002091BC0024FD03C01092E4010895409153
:10076000E6015091E7016091E8017091E901452BA4
:10077000462B472B69F30097A105B10541F02AE20A
:100780002A95F1F700C00197A109B109E1CF809145
:10079000E5010C949B011F920F920FB60F9211244A
:1007A0002F933F938F939F93AF93BF9380910D02AD
:1007B00090910E02A0910F02B091100230910C02A4
:1007C00023E0230F2D3758F50196A11DB11D20936D
:1007D0000C0280930D0290930E02A0930F02B0932F
:1007E00010028091110290911202A0911302B09117
:1007F00014020196A11DB11D809311029093120263
:10080000A0931302B0931402BF91AF919F918F9167
:100810003F912F910F900FBE0F901F90189526E8D3
:10082000230F0296A11DB11DD2CF1F920F920FB6BA
:100830000F9211242F933F934F935F936F937F9366
:100840008F939F93AF93BF93EF93FF938091B900E2
:10085000887F803609F44AC0F0F5883209F4A7C0D1
:1008600018F5803109F49BC0B8F4882309F4F9C065
:10087000883009F494C0FF91EF91BF91AF919F919F
:100880008F917F916F915F914F913F912F910F9039
:100890000FBE0F901F901895883109F488C08032E0
:1008A00051F78093E20114C0803409F49DC040F4F4
:1008B0008033B9F38833F9F68093E20185ECB0C058
:1008C000803509F485C0883509F496C0883499F6D6
:1008D0000E949303D0CF883909F48CC038F588374B
:1008E00029F050F4883611F0803729F683E08093A0
:1008F000E4011092BD0157C0883809F47BC08039EB
:1009000019F0803809F0B7CF8091BD01803208F02E
:1009100071C0E091BD0181E08E0F8093BD01809197
:10092000BB00F0E0E356FE4F80833DC0803B39F0D2
:10093000E0F4803A09F479C0883A09F09CCF84E069
:100940008093E40110929C0110929B01E0911702A8
:10095000F0911802099580919B0181110FC081E0EF
:1009600080939B0110927B0109C0803C09F4A6CFC3
:10097000883C09F4A3CF883B09F07DCFE0919C012E
:1009800081E08E0F80939C01F0E0E558FE4F80815E
:100990008093BB0090919C0180919B0129C0809124
:1009A000BF018093BB0085EC8093BC0064CF909125
:1009B000E1018091E001981758F5E091E10181E0B3
:1009C0008E0F8093E101F0E0E054FE4F8081E9CF8B
:1009D000E091E10181E08E0F8093E1018091BB0005
:1009E000F0E0E054FE4F80839091E1018091E001BE
:1009F0009817C8F285E8D8CFE091E10181E08E0F29
:100A00008093E1018091BB00F0E0E054FE4F8083D1
:100A10008091E30181115CCF81E08093BE0184EA83
:100A20008093BC001092E40126CF85EC8093BC003B
:100A30001092E4018091BD01803230F4E091BD015B
:100A4000F0E0E356FE4F10826091BD0170E0E0914E
:100A50001502F09116028DE991E009951092BD0101
:100A60000ACF1092E20134CFEDE1F2E0138212825C
:100A700088EE93E0A0E0B0E084839583A683B783FB
:100A80008FE391E091838083E9E2F2E013821282A6
:100A900081E591E09183808387E2848380E181878F
:100AA00082E0828713860895789484B5826084BD3D
:100AB00084B5816084BD85B5826085BD85B5816062
:100AC00085BD80916E00816080936E0010928100E0
:100AD000809181008260809381008091810081609B
:100AE000809381008091800081608093800080915C
:100AF000B10084608093B1008091B00081608093E8
:100B0000B00080917A00846080937A0080917A00AE
:100B1000826080937A0080917A00816080937A006D
:100B200080917A00806880937A001092C1001092C0
:100B30001C0210921B0210921A02109219020E94BB
:100B40007D0182E890E0909318028093170283E879
:100B500090E0909316028093150210922E028091DD
:100B60003302823018F098E090932E028093310285
:100B700062E370E080E090E00E9422016091340224
:100B800089E292E00E94420268EE73E080E090E029
:100B90000E94220160E389E292E00E942C03CBE4F0
:100BA000D6E4CE010197F1F760E389E292E00E947A
:100BB0002C032197F1F760E389E292E00E942C0375
:100BC00083E592E00197F1F760E289E292E00E940A
:100BD0002C0360912E02606240E089E292E00E9464
:100BE000450384E080932F0240E06CE089E292E0CC
:100BF0000E94450340E061E089E292E00E944503E3
:100C0000CBE3DFE1CE010197F1F782E08093300280
:100C100040E066E089E292E00E94450340E062E045
:100C200089E292E00E9445032197F1F788E08093E2
:100C3000340260E089E292E00E944202C5E2D1E023
:100C400000E011E080E0E82E80E0F82E80E00E94D5
:100C50005C03FE0101900020E9F7AF0146525140CC
:100C600065E271E089E292E00E94840081E00E94E6
:100C70005C03F80101900020E9F7AF0141505140B9
:100C800060E071E089E292E00E94840040E068E167
:100C900089E292E00E94450360E971E080E090E023
:100CA0000E942201E114F10489F20E940000CECFDB
:100CB000EE0FFF1F0590F491E02D0994F894FFCFFB
:100CC0002020202020202020202020202020202024
:100CD0002020202020202020202020425349542062
:100CE00041493231004A6F65204D617220436C6F7B
:100CF0007361000000400014005400000000001365
:100D000002E6012903BC01DF01CC01BD01000000A6
:0A0D1000008D038400290355010043
:00000001FF
